{
  "_format": "hh-sol-artifact-1",
  "contractName": "CCCT",
  "sourceName": "contracts/CCCT.sol",
  "abi": [
    {
      "inputs": [],
      "stateMutability": "nonpayable",
      "type": "constructor"
    },
    {
      "anonymous": false,
      "inputs": [
        {
          "indexed": true,
          "internalType": "address",
          "name": "owner",
          "type": "address"
        },
        {
          "indexed": true,
          "internalType": "address",
          "name": "spender",
          "type": "address"
        },
        {
          "indexed": false,
          "internalType": "uint256",
          "name": "value",
          "type": "uint256"
        }
      ],
      "name": "Approval",
      "type": "event"
    },
    {
      "anonymous": false,
      "inputs": [
        {
          "indexed": true,
          "internalType": "address",
          "name": "previousOwner",
          "type": "address"
        },
        {
          "indexed": true,
          "internalType": "address",
          "name": "newOwner",
          "type": "address"
        }
      ],
      "name": "OwnershipTransferred",
      "type": "event"
    },
    {
      "anonymous": false,
      "inputs": [
        {
          "indexed": true,
          "internalType": "address",
          "name": "from",
          "type": "address"
        },
        {
          "indexed": true,
          "internalType": "address",
          "name": "to",
          "type": "address"
        },
        {
          "indexed": false,
          "internalType": "uint256",
          "name": "value",
          "type": "uint256"
        }
      ],
      "name": "Transfer",
      "type": "event"
    },
    {
      "inputs": [],
      "name": "CCCTAddress",
      "outputs": [
        {
          "internalType": "address",
          "name": "",
          "type": "address"
        }
      ],
      "stateMutability": "view",
      "type": "function"
    },
    {
      "inputs": [],
      "name": "CLAIM_END_TIME",
      "outputs": [
        {
          "internalType": "uint256",
          "name": "",
          "type": "uint256"
        }
      ],
      "stateMutability": "view",
      "type": "function"
    },
    {
      "inputs": [],
      "name": "EMISSIONS_RATE",
      "outputs": [
        {
          "internalType": "uint256",
          "name": "",
          "type": "uint256"
        }
      ],
      "stateMutability": "view",
      "type": "function"
    },
    {
      "inputs": [],
      "name": "MAX_CCCTNFT_STAKED",
      "outputs": [
        {
          "internalType": "uint256",
          "name": "",
          "type": "uint256"
        }
      ],
      "stateMutability": "view",
      "type": "function"
    },
    {
      "inputs": [
        {
          "internalType": "address",
          "name": "owner",
          "type": "address"
        },
        {
          "internalType": "address",
          "name": "spender",
          "type": "address"
        }
      ],
      "name": "allowance",
      "outputs": [
        {
          "internalType": "uint256",
          "name": "",
          "type": "uint256"
        }
      ],
      "stateMutability": "view",
      "type": "function"
    },
    {
      "inputs": [
        {
          "internalType": "address",
          "name": "spender",
          "type": "address"
        },
        {
          "internalType": "uint256",
          "name": "amount",
          "type": "uint256"
        }
      ],
      "name": "approve",
      "outputs": [
        {
          "internalType": "bool",
          "name": "",
          "type": "bool"
        }
      ],
      "stateMutability": "nonpayable",
      "type": "function"
    },
    {
      "inputs": [
        {
          "internalType": "address",
          "name": "account",
          "type": "address"
        }
      ],
      "name": "balanceOf",
      "outputs": [
        {
          "internalType": "uint256",
          "name": "",
          "type": "uint256"
        }
      ],
      "stateMutability": "view",
      "type": "function"
    },
    {
      "inputs": [
        {
          "internalType": "uint256",
          "name": "amount",
          "type": "uint256"
        }
      ],
      "name": "burn",
      "outputs": [],
      "stateMutability": "nonpayable",
      "type": "function"
    },
    {
      "inputs": [
        {
          "internalType": "address",
          "name": "account",
          "type": "address"
        },
        {
          "internalType": "uint256",
          "name": "amount",
          "type": "uint256"
        }
      ],
      "name": "burnFrom",
      "outputs": [],
      "stateMutability": "nonpayable",
      "type": "function"
    },
    {
      "inputs": [],
      "name": "claimAll",
      "outputs": [],
      "stateMutability": "nonpayable",
      "type": "function"
    },
    {
      "inputs": [
        {
          "internalType": "uint256",
          "name": "tokenId",
          "type": "uint256"
        }
      ],
      "name": "claimByTokenId",
      "outputs": [],
      "stateMutability": "nonpayable",
      "type": "function"
    },
    {
      "inputs": [],
      "name": "decimals",
      "outputs": [
        {
          "internalType": "uint8",
          "name": "",
          "type": "uint8"
        }
      ],
      "stateMutability": "view",
      "type": "function"
    },
    {
      "inputs": [
        {
          "internalType": "address",
          "name": "spender",
          "type": "address"
        },
        {
          "internalType": "uint256",
          "name": "subtractedValue",
          "type": "uint256"
        }
      ],
      "name": "decreaseAllowance",
      "outputs": [
        {
          "internalType": "bool",
          "name": "",
          "type": "bool"
        }
      ],
      "stateMutability": "nonpayable",
      "type": "function"
    },
    {
      "inputs": [
        {
          "internalType": "address",
          "name": "staker",
          "type": "address"
        }
      ],
      "name": "getAllRewards",
      "outputs": [
        {
          "internalType": "uint256",
          "name": "",
          "type": "uint256"
        }
      ],
      "stateMutability": "view",
      "type": "function"
    },
    {
      "inputs": [
        {
          "internalType": "uint256",
          "name": "tokenId",
          "type": "uint256"
        }
      ],
      "name": "getRewardsByTokenId",
      "outputs": [
        {
          "internalType": "uint256",
          "name": "",
          "type": "uint256"
        }
      ],
      "stateMutability": "view",
      "type": "function"
    },
    {
      "inputs": [
        {
          "internalType": "uint256",
          "name": "tokenId",
          "type": "uint256"
        }
      ],
      "name": "getStaker",
      "outputs": [
        {
          "internalType": "address",
          "name": "",
          "type": "address"
        }
      ],
      "stateMutability": "view",
      "type": "function"
    },
    {
      "inputs": [
        {
          "internalType": "address",
          "name": "staker",
          "type": "address"
        }
      ],
      "name": "getTokensStaked",
      "outputs": [
        {
          "internalType": "uint256[]",
          "name": "",
          "type": "uint256[]"
        }
      ],
      "stateMutability": "view",
      "type": "function"
    },
    {
      "inputs": [
        {
          "internalType": "address",
          "name": "spender",
          "type": "address"
        },
        {
          "internalType": "uint256",
          "name": "addedValue",
          "type": "uint256"
        }
      ],
      "name": "increaseAllowance",
      "outputs": [
        {
          "internalType": "bool",
          "name": "",
          "type": "bool"
        }
      ],
      "stateMutability": "nonpayable",
      "type": "function"
    },
    {
      "inputs": [],
      "name": "name",
      "outputs": [
        {
          "internalType": "string",
          "name": "",
          "type": "string"
        }
      ],
      "stateMutability": "view",
      "type": "function"
    },
    {
      "inputs": [],
      "name": "owner",
      "outputs": [
        {
          "internalType": "address",
          "name": "",
          "type": "address"
        }
      ],
      "stateMutability": "view",
      "type": "function"
    },
    {
      "inputs": [],
      "name": "renounceOwnership",
      "outputs": [],
      "stateMutability": "nonpayable",
      "type": "function"
    },
    {
      "inputs": [
        {
          "internalType": "address",
          "name": "_CCCTAddress",
          "type": "address"
        }
      ],
      "name": "setCCCTAddress",
      "outputs": [],
      "stateMutability": "nonpayable",
      "type": "function"
    },
    {
      "inputs": [
        {
          "internalType": "uint256[]",
          "name": "tokenIds",
          "type": "uint256[]"
        }
      ],
      "name": "stakeByIds",
      "outputs": [],
      "stateMutability": "nonpayable",
      "type": "function"
    },
    {
      "inputs": [],
      "name": "symbol",
      "outputs": [
        {
          "internalType": "string",
          "name": "",
          "type": "string"
        }
      ],
      "stateMutability": "view",
      "type": "function"
    },
    {
      "inputs": [],
      "name": "totalSupply",
      "outputs": [
        {
          "internalType": "uint256",
          "name": "",
          "type": "uint256"
        }
      ],
      "stateMutability": "view",
      "type": "function"
    },
    {
      "inputs": [
        {
          "internalType": "address",
          "name": "recipient",
          "type": "address"
        },
        {
          "internalType": "uint256",
          "name": "amount",
          "type": "uint256"
        }
      ],
      "name": "transfer",
      "outputs": [
        {
          "internalType": "bool",
          "name": "",
          "type": "bool"
        }
      ],
      "stateMutability": "nonpayable",
      "type": "function"
    },
    {
      "inputs": [
        {
          "internalType": "address",
          "name": "sender",
          "type": "address"
        },
        {
          "internalType": "address",
          "name": "recipient",
          "type": "address"
        },
        {
          "internalType": "uint256",
          "name": "amount",
          "type": "uint256"
        }
      ],
      "name": "transferFrom",
      "outputs": [
        {
          "internalType": "bool",
          "name": "",
          "type": "bool"
        }
      ],
      "stateMutability": "nonpayable",
      "type": "function"
    },
    {
      "inputs": [
        {
          "internalType": "address",
          "name": "newOwner",
          "type": "address"
        }
      ],
      "name": "transferOwnership",
      "outputs": [],
      "stateMutability": "nonpayable",
      "type": "function"
    },
    {
      "inputs": [],
      "name": "unstakeAll",
      "outputs": [],
      "stateMutability": "nonpayable",
      "type": "function"
    },
    {
      "inputs": [
        {
          "internalType": "uint256[]",
          "name": "tokenIds",
          "type": "uint256[]"
        }
      ],
      "name": "unstakeByIds",
      "outputs": [],
      "stateMutability": "nonpayable",
      "type": "function"
    }
  ],
  "bytecode": "0x6080604052600a600655650a86cc54b9806007556361cfdfd06008556000600960006101000a81548173ffffffffffffffffffffffffffffffffffffffff021916908373ffffffffffffffffffffffffffffffffffffffff1602179055503480156200006a57600080fd5b506040518060400160405280600581526020017f535445414b0000000000000000000000000000000000000000000000000000008152506040518060400160405280600381526020017f53544b00000000000000000000000000000000000000000000000000000000008152508160039080519060200190620000ef929190620001ff565b50806004908051906020019062000108929190620001ff565b5050506200012b6200011f6200013160201b60201c565b6200013960201b60201c565b62000314565b600033905090565b6000600560009054906101000a900473ffffffffffffffffffffffffffffffffffffffff16905081600560006101000a81548173ffffffffffffffffffffffffffffffffffffffff021916908373ffffffffffffffffffffffffffffffffffffffff1602179055508173ffffffffffffffffffffffffffffffffffffffff168173ffffffffffffffffffffffffffffffffffffffff167f8be0079c531659141344cd1fd0a4f28419497f9722a3daafe3b4186f6b6457e060405160405180910390a35050565b8280546200020d90620002af565b90600052602060002090601f0160209004810192826200023157600085556200027d565b82601f106200024c57805160ff19168380011785556200027d565b828001600101855582156200027d579182015b828111156200027c5782518255916020019190600101906200025f565b5b5090506200028c919062000290565b5090565b5b80821115620002ab57600081600090555060010162000291565b5090565b60006002820490506001821680620002c857607f821691505b60208210811415620002df57620002de620002e5565b5b50919050565b7f4e487b7100000000000000000000000000000000000000000000000000000000600052602260045260246000fd5b613f7480620003246000396000f3fe608060405234801561001057600080fd5b50600436106101da5760003560e01c806370a0823111610104578063b4252a1c116100a2578063d9ffad4711610071578063d9ffad4714610547578063dd62ed3e14610563578063e3c998fe14610593578063f2fde38b146105c3576101da565b8063b4252a1c146104e5578063b8324b8914610503578063ba7e76621461051f578063d1058e591461053d576101da565b80638da5cb5b116100de5780638da5cb5b1461044957806395d89b4114610467578063a457c2d714610485578063a9059cbb146104b5576101da565b806370a08231146103f3578063715018a61461042357806379cc67901461042d576101da565b8063362a3fad1161017c578063515ec1051161014b578063515ec1051461035957806352eb7796146103895780635e1f1e2a146103b9578063630406d8146103d5576101da565b8063362a3fad146102c157806339509351146102f157806342966c681461032157806348aa19361461033d576101da565b80632209d38c116101b85780632209d38c1461024b57806323b872dd14610269578063313ce5671461029957806335322f37146102b7576101da565b806306fdde03146101df578063095ea7b3146101fd57806318160ddd1461022d575b600080fd5b6101e76105df565b6040516101f491906138d7565b60405180910390f35b61021760048036038101906102129190612f94565b610671565b60405161022491906138bc565b60405180910390f35b61023561068f565b6040516102429190613b79565b60405180910390f35b610253610699565b6040516102609190613b79565b60405180910390f35b610283600480360381019061027e9190612f45565b61069f565b60405161029091906138bc565b60405180910390f35b6102a1610797565b6040516102ae9190613b94565b60405180910390f35b6102bf6107a0565b005b6102db60048036038101906102d69190612eb7565b610aef565b6040516102e89190613b79565b60405180910390f35b61030b60048036038101906103069190612f94565b610c26565b60405161031891906138bc565b60405180910390f35b61033b60048036038101906103369190613011565b610cd2565b005b61035760048036038101906103529190612fd0565b610ce6565b005b610373600480360381019061036e9190613011565b6110ba565b6040516103809190613b79565b60405180910390f35b6103a3600480360381019061039e9190612eb7565b6111b9565b6040516103b0919061389a565b60405180910390f35b6103d360048036038101906103ce9190613011565b611250565b005b6103dd611401565b6040516103ea9190613848565b60405180910390f35b61040d60048036038101906104089190612eb7565b611427565b60405161041a9190613b79565b60405180910390f35b61042b61146f565b005b61044760048036038101906104429190612f94565b6114f7565b005b610451611572565b60405161045e9190613848565b60405180910390f35b61046f61159c565b60405161047c91906138d7565b60405180910390f35b61049f600480360381019061049a9190612f94565b61162e565b6040516104ac91906138bc565b60405180910390f35b6104cf60048036038101906104ca9190612f94565b611719565b6040516104dc91906138bc565b60405180910390f35b6104ed611737565b6040516104fa9190613b79565b60405180910390f35b61051d60048036038101906105189190612eb7565b61173d565b005b6105276117fd565b6040516105349190613b79565b60405180910390f35b610545611803565b005b610561600480360381019061055c9190612fd0565b611b36565b005b61057d60048036038101906105789190612f09565b612071565b60405161058a9190613b79565b60405180910390f35b6105ad60048036038101906105a89190613011565b6120f8565b6040516105ba9190613848565b60405180910390f35b6105dd60048036038101906105d89190612eb7565b612135565b005b6060600380546105ee90613df7565b80601f016020809104026020016040519081016040528092919081815260200182805461061a90613df7565b80156106675780601f1061063c57610100808354040283529160200191610667565b820191906000526020600020905b81548152906001019060200180831161064a57829003601f168201915b5050505050905090565b600061068561067e61222d565b8484612235565b6001905092915050565b6000600254905090565b60085481565b60006106ac848484612400565b6000600160008673ffffffffffffffffffffffffffffffffffffffff1673ffffffffffffffffffffffffffffffffffffffff16815260200190815260200160002060006106f761222d565b73ffffffffffffffffffffffffffffffffffffffff1673ffffffffffffffffffffffffffffffffffffffff16815260200190815260200160002054905082811015610777576040517f08c379a000000000000000000000000000000000000000000000000000000000815260040161076e90613a39565b60405180910390fd5b61078b8561078361222d565b858403612235565b60019150509392505050565b60006012905090565b6107a861222d565b73ffffffffffffffffffffffffffffffffffffffff166107c6611572565b73ffffffffffffffffffffffffffffffffffffffff161461081c576040517f08c379a000000000000000000000000000000000000000000000000000000000815260040161081390613a59565b60405180910390fd5b6000600d60003373ffffffffffffffffffffffffffffffffffffffff1673ffffffffffffffffffffffffffffffffffffffff16815260200190815260200160002080549050116108a1576040517f08c379a000000000000000000000000000000000000000000000000000000000815260040161089890613a19565b60405180910390fd5b600080600d60003373ffffffffffffffffffffffffffffffffffffffff1673ffffffffffffffffffffffffffffffffffffffff1681526020019081526020016000208054905090505b6000811115610ae1576000600d60003373ffffffffffffffffffffffffffffffffffffffff1673ffffffffffffffffffffffffffffffffffffffff1681526020019081526020016000206001836109419190613d11565b81548110610978577f4e487b7100000000000000000000000000000000000000000000000000000000600052603260045260246000fd5b90600052602060002001549050600a60009054906101000a900473ffffffffffffffffffffffffffffffffffffffff1673ffffffffffffffffffffffffffffffffffffffff166323b872dd3033846040518463ffffffff1660e01b81526004016109e493929190613863565b600060405180830381600087803b1580156109fe57600080fd5b505af1158015610a12573d6000803e3d6000fd5b50505050600754600b60008381526020019081526020016000205442610a389190613d11565b610a429190613cb7565b83610a4d9190613c61565b9250610a593382612681565b600960009054906101000a900473ffffffffffffffffffffffffffffffffffffffff16600c600083815260200190815260200160002060006101000a81548173ffffffffffffffffffffffffffffffffffffffff021916908373ffffffffffffffffffffffffffffffffffffffff160217905550508080610ad990613dcd565b9150506108ea565b50610aec338261277a565b50565b600080600d60008473ffffffffffffffffffffffffffffffffffffffff1673ffffffffffffffffffffffffffffffffffffffff168152602001908152602001600020805480602002602001604051908101604052809291908181526020018280548015610b7b57602002820191906000526020600020905b815481526020019060010190808311610b67575b505050505090506000805b8251811015610c1b57600754600b6000858481518110610bcf577f4e487b7100000000000000000000000000000000000000000000000000000000600052603260045260246000fd5b602002602001015181526020019081526020016000205442610bf19190613d11565b610bfb9190613cb7565b82610c069190613c61565b91508080610c1390613e29565b915050610b86565b508092505050919050565b6000610cc8610c3361222d565b848460016000610c4161222d565b73ffffffffffffffffffffffffffffffffffffffff1673ffffffffffffffffffffffffffffffffffffffff16815260200190815260200160002060008873ffffffffffffffffffffffffffffffffffffffff1673ffffffffffffffffffffffffffffffffffffffff16815260200190815260200160002054610cc39190613c61565b612235565b6001905092915050565b610ce3610cdd61222d565b826128da565b50565b610cee61222d565b73ffffffffffffffffffffffffffffffffffffffff16610d0c611572565b73ffffffffffffffffffffffffffffffffffffffff1614610d62576040517f08c379a0000000000000000000000000000000000000000000000000000000008152600401610d5990613a59565b60405180910390fd5b6000805b82518110156110ab573373ffffffffffffffffffffffffffffffffffffffff16600c6000858481518110610dc3577f4e487b7100000000000000000000000000000000000000000000000000000000600052603260045260246000fd5b6020026020010151815260200190815260200160002060009054906101000a900473ffffffffffffffffffffffffffffffffffffffff1673ffffffffffffffffffffffffffffffffffffffff1614610e50576040517f08c379a0000000000000000000000000000000000000000000000000000000008152600401610e4790613a99565b60405180910390fd5b600a60009054906101000a900473ffffffffffffffffffffffffffffffffffffffff1673ffffffffffffffffffffffffffffffffffffffff166323b872dd3033868581518110610ec9577f4e487b7100000000000000000000000000000000000000000000000000000000600052603260045260246000fd5b60200260200101516040518463ffffffff1660e01b8152600401610eef93929190613863565b600060405180830381600087803b158015610f0957600080fd5b505af1158015610f1d573d6000803e3d6000fd5b50505050600754600b6000858481518110610f61577f4e487b7100000000000000000000000000000000000000000000000000000000600052603260045260246000fd5b602002602001015181526020019081526020016000205442610f839190613d11565b610f8d9190613cb7565b82610f989190613c61565b9150610fe433848381518110610fd7577f4e487b7100000000000000000000000000000000000000000000000000000000600052603260045260246000fd5b6020026020010151612681565b600960009054906101000a900473ffffffffffffffffffffffffffffffffffffffff16600c6000858481518110611044577f4e487b7100000000000000000000000000000000000000000000000000000000600052603260045260246000fd5b6020026020010151815260200190815260200160002060006101000a81548173ffffffffffffffffffffffffffffffffffffffff021916908373ffffffffffffffffffffffffffffffffffffffff16021790555080806110a390613e29565b915050610d66565b506110b6338261277a565b5050565b6000600960009054906101000a900473ffffffffffffffffffffffffffffffffffffffff1673ffffffffffffffffffffffffffffffffffffffff16600c600084815260200190815260200160002060009054906101000a900473ffffffffffffffffffffffffffffffffffffffff1673ffffffffffffffffffffffffffffffffffffffff161415611180576040517f08c379a000000000000000000000000000000000000000000000000000000000815260040161117790613b19565b60405180910390fd5b6000600b600084815260200190815260200160002054426111a19190613d11565b9050600754816111b19190613cb7565b915050919050565b6060600d60008373ffffffffffffffffffffffffffffffffffffffff1673ffffffffffffffffffffffffffffffffffffffff16815260200190815260200160002080548060200260200160405190810160405280929190818152602001828054801561124457602002820191906000526020600020905b815481526020019060010190808311611230575b50505050509050919050565b61125861222d565b73ffffffffffffffffffffffffffffffffffffffff16611276611572565b73ffffffffffffffffffffffffffffffffffffffff16146112cc576040517f08c379a00000000000000000000000000000000000000000000000000000000081526004016112c390613a59565b60405180910390fd5b3373ffffffffffffffffffffffffffffffffffffffff16600c600083815260200190815260200160002060009054906101000a900473ffffffffffffffffffffffffffffffffffffffff1673ffffffffffffffffffffffffffffffffffffffff161461136d576040517f08c379a0000000000000000000000000000000000000000000000000000000008152600401611364906139f9565b60405180910390fd5b60085442106113b1576040517f08c379a00000000000000000000000000000000000000000000000000000000081526004016113a890613959565b60405180910390fd5b6113e633600754600b600085815260200190815260200160002054426113d79190613d11565b6113e19190613cb7565b61277a565b42600b60008381526020019081526020016000208190555050565b600a60009054906101000a900473ffffffffffffffffffffffffffffffffffffffff1681565b60008060008373ffffffffffffffffffffffffffffffffffffffff1673ffffffffffffffffffffffffffffffffffffffff168152602001908152602001600020549050919050565b61147761222d565b73ffffffffffffffffffffffffffffffffffffffff16611495611572565b73ffffffffffffffffffffffffffffffffffffffff16146114eb576040517f08c379a00000000000000000000000000000000000000000000000000000000081526004016114e290613a59565b60405180910390fd5b6114f56000612ab1565b565b600061150a8361150561222d565b612071565b90508181101561154f576040517f08c379a000000000000000000000000000000000000000000000000000000000815260040161154690613a79565b60405180910390fd5b6115638361155b61222d565b848403612235565b61156d83836128da565b505050565b6000600560009054906101000a900473ffffffffffffffffffffffffffffffffffffffff16905090565b6060600480546115ab90613df7565b80601f01602080910402602001604051908101604052809291908181526020018280546115d790613df7565b80156116245780601f106115f957610100808354040283529160200191611624565b820191906000526020600020905b81548152906001019060200180831161160757829003601f168201915b5050505050905090565b6000806001600061163d61222d565b73ffffffffffffffffffffffffffffffffffffffff1673ffffffffffffffffffffffffffffffffffffffff16815260200190815260200160002060008573ffffffffffffffffffffffffffffffffffffffff1673ffffffffffffffffffffffffffffffffffffffff168152602001908152602001600020549050828110156116fa576040517f08c379a00000000000000000000000000000000000000000000000000000000081526004016116f190613b39565b60405180910390fd5b61170e61170561222d565b85858403612235565b600191505092915050565b600061172d61172661222d565b8484612400565b6001905092915050565b60065481565b61174561222d565b73ffffffffffffffffffffffffffffffffffffffff16611763611572565b73ffffffffffffffffffffffffffffffffffffffff16146117b9576040517f08c379a00000000000000000000000000000000000000000000000000000000081526004016117b090613a59565b60405180910390fd5b80600a60006101000a81548173ffffffffffffffffffffffffffffffffffffffff021916908373ffffffffffffffffffffffffffffffffffffffff16021790555050565b60075481565b61180b61222d565b73ffffffffffffffffffffffffffffffffffffffff16611829611572565b73ffffffffffffffffffffffffffffffffffffffff161461187f576040517f08c379a000000000000000000000000000000000000000000000000000000000815260040161187690613a59565b60405180910390fd5b60085442106118c3576040517f08c379a00000000000000000000000000000000000000000000000000000000081526004016118ba90613959565b60405180910390fd5b6000600d60003373ffffffffffffffffffffffffffffffffffffffff1673ffffffffffffffffffffffffffffffffffffffff16815260200190815260200160002080548060200260200160405190810160405280929190818152602001828054801561194e57602002820191906000526020600020905b81548152602001906001019080831161193a575b505050505090506000805b8251811015611b27573373ffffffffffffffffffffffffffffffffffffffff16600c60008584815181106119b6577f4e487b7100000000000000000000000000000000000000000000000000000000600052603260045260246000fd5b6020026020010151815260200190815260200160002060009054906101000a900473ffffffffffffffffffffffffffffffffffffffff1673ffffffffffffffffffffffffffffffffffffffff1614611a43576040517f08c379a0000000000000000000000000000000000000000000000000000000008152600401611a3a906139f9565b60405180910390fd5b600754600b6000858481518110611a83577f4e487b7100000000000000000000000000000000000000000000000000000000600052603260045260246000fd5b602002602001015181526020019081526020016000205442611aa59190613d11565b611aaf9190613cb7565b82611aba9190613c61565b915042600b6000858481518110611afa577f4e487b7100000000000000000000000000000000000000000000000000000000600052603260045260246000fd5b60200260200101518152602001908152602001600020819055508080611b1f90613e29565b915050611959565b50611b32338261277a565b5050565b6006548151600d60003373ffffffffffffffffffffffffffffffffffffffff1673ffffffffffffffffffffffffffffffffffffffff16815260200190815260200160002080549050611b889190613c61565b1115611bc9576040517f08c379a0000000000000000000000000000000000000000000000000000000008152600401611bc090613939565b60405180910390fd5b60005b815181101561206d573373ffffffffffffffffffffffffffffffffffffffff16600a60009054906101000a900473ffffffffffffffffffffffffffffffffffffffff1673ffffffffffffffffffffffffffffffffffffffff16636352211e848481518110611c63577f4e487b7100000000000000000000000000000000000000000000000000000000600052603260045260246000fd5b60200260200101516040518263ffffffff1660e01b8152600401611c879190613b79565b60206040518083038186803b158015611c9f57600080fd5b505afa158015611cb3573d6000803e3d6000fd5b505050506040513d601f19601f82011682018060405250810190611cd79190612ee0565b73ffffffffffffffffffffffffffffffffffffffff16148015611dba5750600960009054906101000a900473ffffffffffffffffffffffffffffffffffffffff1673ffffffffffffffffffffffffffffffffffffffff16600c6000848481518110611d6b577f4e487b7100000000000000000000000000000000000000000000000000000000600052603260045260246000fd5b6020026020010151815260200190815260200160002060009054906101000a900473ffffffffffffffffffffffffffffffffffffffff1673ffffffffffffffffffffffffffffffffffffffff16145b611df9576040517f08c379a0000000000000000000000000000000000000000000000000000000008152600401611df0906139d9565b60405180910390fd5b600a60009054906101000a900473ffffffffffffffffffffffffffffffffffffffff1673ffffffffffffffffffffffffffffffffffffffff166323b872dd3330858581518110611e72577f4e487b7100000000000000000000000000000000000000000000000000000000600052603260045260246000fd5b60200260200101516040518463ffffffff1660e01b8152600401611e9893929190613863565b600060405180830381600087803b158015611eb257600080fd5b505af1158015611ec6573d6000803e3d6000fd5b50505050600d60003373ffffffffffffffffffffffffffffffffffffffff1673ffffffffffffffffffffffffffffffffffffffff168152602001908152602001600020828281518110611f42577f4e487b7100000000000000000000000000000000000000000000000000000000600052603260045260246000fd5b6020026020010151908060018154018082558091505060019003906000526020600020016000909190919091505542600b6000848481518110611fae577f4e487b7100000000000000000000000000000000000000000000000000000000600052603260045260246000fd5b602002602001015181526020019081526020016000208190555033600c6000848481518110612006577f4e487b7100000000000000000000000000000000000000000000000000000000600052603260045260246000fd5b6020026020010151815260200190815260200160002060006101000a81548173ffffffffffffffffffffffffffffffffffffffff021916908373ffffffffffffffffffffffffffffffffffffffff160217905550808061206590613e29565b915050611bcc565b5050565b6000600160008473ffffffffffffffffffffffffffffffffffffffff1673ffffffffffffffffffffffffffffffffffffffff16815260200190815260200160002060008373ffffffffffffffffffffffffffffffffffffffff1673ffffffffffffffffffffffffffffffffffffffff16815260200190815260200160002054905092915050565b6000600c600083815260200190815260200160002060009054906101000a900473ffffffffffffffffffffffffffffffffffffffff169050919050565b61213d61222d565b73ffffffffffffffffffffffffffffffffffffffff1661215b611572565b73ffffffffffffffffffffffffffffffffffffffff16146121b1576040517f08c379a00000000000000000000000000000000000000000000000000000000081526004016121a890613a59565b60405180910390fd5b600073ffffffffffffffffffffffffffffffffffffffff168173ffffffffffffffffffffffffffffffffffffffff161415612221576040517f08c379a000000000000000000000000000000000000000000000000000000000815260040161221890613979565b60405180910390fd5b61222a81612ab1565b50565b600033905090565b600073ffffffffffffffffffffffffffffffffffffffff168373ffffffffffffffffffffffffffffffffffffffff1614156122a5576040517f08c379a000000000000000000000000000000000000000000000000000000000815260040161229c90613af9565b60405180910390fd5b600073ffffffffffffffffffffffffffffffffffffffff168273ffffffffffffffffffffffffffffffffffffffff161415612315576040517f08c379a000000000000000000000000000000000000000000000000000000000815260040161230c90613999565b60405180910390fd5b80600160008573ffffffffffffffffffffffffffffffffffffffff1673ffffffffffffffffffffffffffffffffffffffff16815260200190815260200160002060008473ffffffffffffffffffffffffffffffffffffffff1673ffffffffffffffffffffffffffffffffffffffff168152602001908152602001600020819055508173ffffffffffffffffffffffffffffffffffffffff168373ffffffffffffffffffffffffffffffffffffffff167f8c5be1e5ebec7d5bd14f71427d1e84f3dd0314c0f7b2291e5b200ac8c7c3b925836040516123f39190613b79565b60405180910390a3505050565b600073ffffffffffffffffffffffffffffffffffffffff168373ffffffffffffffffffffffffffffffffffffffff161415612470576040517f08c379a000000000000000000000000000000000000000000000000000000000815260040161246790613ad9565b60405180910390fd5b600073ffffffffffffffffffffffffffffffffffffffff168273ffffffffffffffffffffffffffffffffffffffff1614156124e0576040517f08c379a00000000000000000000000000000000000000000000000000000000081526004016124d7906138f9565b60405180910390fd5b6124eb838383612b77565b60008060008573ffffffffffffffffffffffffffffffffffffffff1673ffffffffffffffffffffffffffffffffffffffff16815260200190815260200160002054905081811015612571576040517f08c379a0000000000000000000000000000000000000000000000000000000008152600401612568906139b9565b60405180910390fd5b8181036000808673ffffffffffffffffffffffffffffffffffffffff1673ffffffffffffffffffffffffffffffffffffffff16815260200190815260200160002081905550816000808573ffffffffffffffffffffffffffffffffffffffff1673ffffffffffffffffffffffffffffffffffffffff16815260200190815260200160002060008282546126049190613c61565b925050819055508273ffffffffffffffffffffffffffffffffffffffff168473ffffffffffffffffffffffffffffffffffffffff167fddf252ad1be2c89b69c2b068fc378daa952ba7f163c4a11628f55a4df523b3ef846040516126689190613b79565b60405180910390a361267b848484612b7c565b50505050565b60005b600d60008473ffffffffffffffffffffffffffffffffffffffff1673ffffffffffffffffffffffffffffffffffffffff168152602001908152602001600020805490508110156127755781600d60008573ffffffffffffffffffffffffffffffffffffffff1673ffffffffffffffffffffffffffffffffffffffff1681526020019081526020016000208281548110612746577f4e487b7100000000000000000000000000000000000000000000000000000000600052603260045260246000fd5b90600052602060002001541415612762576127618382612b81565b5b808061276d90613e29565b915050612684565b505050565b600073ffffffffffffffffffffffffffffffffffffffff168273ffffffffffffffffffffffffffffffffffffffff1614156127ea576040517f08c379a00000000000000000000000000000000000000000000000000000000081526004016127e190613b59565b60405180910390fd5b6127f660008383612b77565b80600260008282546128089190613c61565b92505081905550806000808473ffffffffffffffffffffffffffffffffffffffff1673ffffffffffffffffffffffffffffffffffffffff168152602001908152602001600020600082825461285d9190613c61565b925050819055508173ffffffffffffffffffffffffffffffffffffffff16600073ffffffffffffffffffffffffffffffffffffffff167fddf252ad1be2c89b69c2b068fc378daa952ba7f163c4a11628f55a4df523b3ef836040516128c29190613b79565b60405180910390a36128d660008383612b7c565b5050565b600073ffffffffffffffffffffffffffffffffffffffff168273ffffffffffffffffffffffffffffffffffffffff16141561294a576040517f08c379a000000000000000000000000000000000000000000000000000000000815260040161294190613ab9565b60405180910390fd5b61295682600083612b77565b60008060008473ffffffffffffffffffffffffffffffffffffffff1673ffffffffffffffffffffffffffffffffffffffff168152602001908152602001600020549050818110156129dc576040517f08c379a00000000000000000000000000000000000000000000000000000000081526004016129d390613919565b60405180910390fd5b8181036000808573ffffffffffffffffffffffffffffffffffffffff1673ffffffffffffffffffffffffffffffffffffffff168152602001908152602001600020819055508160026000828254612a339190613d11565b92505081905550600073ffffffffffffffffffffffffffffffffffffffff168373ffffffffffffffffffffffffffffffffffffffff167fddf252ad1be2c89b69c2b068fc378daa952ba7f163c4a11628f55a4df523b3ef84604051612a989190613b79565b60405180910390a3612aac83600084612b7c565b505050565b6000600560009054906101000a900473ffffffffffffffffffffffffffffffffffffffff16905081600560006101000a81548173ffffffffffffffffffffffffffffffffffffffff021916908373ffffffffffffffffffffffffffffffffffffffff1602179055508173ffffffffffffffffffffffffffffffffffffffff168173ffffffffffffffffffffffffffffffffffffffff167f8be0079c531659141344cd1fd0a4f28419497f9722a3daafe3b4186f6b6457e060405160405180910390a35050565b505050565b505050565b600d60008373ffffffffffffffffffffffffffffffffffffffff1673ffffffffffffffffffffffffffffffffffffffff168152602001908152602001600020805490508110612bcf57612dde565b60008190505b6001600d60008573ffffffffffffffffffffffffffffffffffffffff1673ffffffffffffffffffffffffffffffffffffffff16815260200190815260200160002080549050612c249190613d11565b811015612d5157600d60008473ffffffffffffffffffffffffffffffffffffffff1673ffffffffffffffffffffffffffffffffffffffff168152602001908152602001600020600182612c779190613c61565b81548110612cae577f4e487b7100000000000000000000000000000000000000000000000000000000600052603260045260246000fd5b9060005260206000200154600d60008573ffffffffffffffffffffffffffffffffffffffff1673ffffffffffffffffffffffffffffffffffffffff1681526020019081526020016000208281548110612d30577f4e487b7100000000000000000000000000000000000000000000000000000000600052603260045260246000fd5b90600052602060002001819055508080612d4990613e29565b915050612bd5565b50600d60008373ffffffffffffffffffffffffffffffffffffffff1673ffffffffffffffffffffffffffffffffffffffff168152602001908152602001600020805480612dc7577f4e487b7100000000000000000000000000000000000000000000000000000000600052603160045260246000fd5b600190038181906000526020600020016000905590555b5050565b6000612df5612df084613be0565b613baf565b90508083825260208201905082856020860282011115612e1457600080fd5b60005b85811015612e445781612e2a8882612ea2565b845260208401935060208301925050600181019050612e17565b5050509392505050565b600081359050612e5d81613f10565b92915050565b600081519050612e7281613f10565b92915050565b600082601f830112612e8957600080fd5b8135612e99848260208601612de2565b91505092915050565b600081359050612eb181613f27565b92915050565b600060208284031215612ec957600080fd5b6000612ed784828501612e4e565b91505092915050565b600060208284031215612ef257600080fd5b6000612f0084828501612e63565b91505092915050565b60008060408385031215612f1c57600080fd5b6000612f2a85828601612e4e565b9250506020612f3b85828601612e4e565b9150509250929050565b600080600060608486031215612f5a57600080fd5b6000612f6886828701612e4e565b9350506020612f7986828701612e4e565b9250506040612f8a86828701612ea2565b9150509250925092565b60008060408385031215612fa757600080fd5b6000612fb585828601612e4e565b9250506020612fc685828601612ea2565b9150509250929050565b600060208284031215612fe257600080fd5b600082013567ffffffffffffffff811115612ffc57600080fd5b61300884828501612e78565b91505092915050565b60006020828403121561302357600080fd5b600061303184828501612ea2565b91505092915050565b6000613046838361381b565b60208301905092915050565b61305b81613d45565b82525050565b600061306c82613c1c565b6130768185613c3f565b935061308183613c0c565b8060005b838110156130b2578151613099888261303a565b97506130a483613c32565b925050600181019050613085565b5085935050505092915050565b6130c881613d57565b82525050565b60006130d982613c27565b6130e38185613c50565b93506130f3818560208601613d9a565b6130fc81613eff565b840191505092915050565b6000613114602383613c50565b91507f45524332303a207472616e7366657220746f20746865207a65726f206164647260008301527f65737300000000000000000000000000000000000000000000000000000000006020830152604082019050919050565b600061317a602283613c50565b91507f45524332303a206275726e20616d6f756e7420657863656564732062616c616e60008301527f63650000000000000000000000000000000000000000000000000000000000006020830152604082019050919050565b60006131e0602383613c50565b91507f4d7573742068617665206c657373207468616e2031312063636374207374616b60008301527f65642100000000000000000000000000000000000000000000000000000000006020830152604082019050919050565b6000613246601583613c50565b91507f436c61696d20706572696f64206973206f7665722100000000000000000000006000830152602082019050919050565b6000613286602683613c50565b91507f4f776e61626c653a206e6577206f776e657220697320746865207a65726f206160008301527f64647265737300000000000000000000000000000000000000000000000000006020830152604082019050919050565b60006132ec602283613c50565b91507f45524332303a20617070726f766520746f20746865207a65726f20616464726560008301527f73730000000000000000000000000000000000000000000000000000000000006020830152604082019050919050565b6000613352602683613c50565b91507f45524332303a207472616e7366657220616d6f756e742065786365656473206260008301527f616c616e636500000000000000000000000000000000000000000000000000006020830152604082019050919050565b60006133b8601e83613c50565b91507f546f6b656e206d757374206265207374616b61626c6520627920796f752100006000830152602082019050919050565b60006133f8601e83613c50565b91507f546f6b656e206973206e6f7420636c61696d61626c6520627920796f752100006000830152602082019050919050565b6000613438602483613c50565b91507f4d7573742068617665206174206c65617374206f6e6520746f6b656e2073746160008301527f6b656421000000000000000000000000000000000000000000000000000000006020830152604082019050919050565b600061349e602883613c50565b91507f45524332303a207472616e7366657220616d6f756e742065786365656473206160008301527f6c6c6f77616e63650000000000000000000000000000000000000000000000006020830152604082019050919050565b6000613504602083613c50565b91507f4f776e61626c653a2063616c6c6572206973206e6f7420746865206f776e65726000830152602082019050919050565b6000613544602483613c50565b91507f45524332303a206275726e20616d6f756e74206578636565647320616c6c6f7760008301527f616e6365000000000000000000000000000000000000000000000000000000006020830152604082019050919050565b60006135aa602783613c50565b91507f4d6573736167652053656e64657220776173206e6f74206f726967696e616c2060008301527f7374616b657221000000000000000000000000000000000000000000000000006020830152604082019050919050565b6000613610602183613c50565b91507f45524332303a206275726e2066726f6d20746865207a65726f2061646472657360008301527f73000000000000000000000000000000000000000000000000000000000000006020830152604082019050919050565b6000613676602583613c50565b91507f45524332303a207472616e736665722066726f6d20746865207a65726f20616460008301527f64726573730000000000000000000000000000000000000000000000000000006020830152604082019050919050565b60006136dc602483613c50565b91507f45524332303a20617070726f76652066726f6d20746865207a65726f2061646460008301527f72657373000000000000000000000000000000000000000000000000000000006020830152604082019050919050565b6000613742601483613c50565b91507f546f6b656e206973206e6f74207374616b6564210000000000000000000000006000830152602082019050919050565b6000613782602583613c50565b91507f45524332303a2064656372656173656420616c6c6f77616e63652062656c6f7760008301527f207a65726f0000000000000000000000000000000000000000000000000000006020830152604082019050919050565b60006137e8601f83613c50565b91507f45524332303a206d696e7420746f20746865207a65726f2061646472657373006000830152602082019050919050565b61382481613d83565b82525050565b61383381613d83565b82525050565b61384281613d8d565b82525050565b600060208201905061385d6000830184613052565b92915050565b60006060820190506138786000830186613052565b6138856020830185613052565b613892604083018461382a565b949350505050565b600060208201905081810360008301526138b48184613061565b905092915050565b60006020820190506138d160008301846130bf565b92915050565b600060208201905081810360008301526138f181846130ce565b905092915050565b6000602082019050818103600083015261391281613107565b9050919050565b600060208201905081810360008301526139328161316d565b9050919050565b60006020820190508181036000830152613952816131d3565b9050919050565b6000602082019050818103600083015261397281613239565b9050919050565b6000602082019050818103600083015261399281613279565b9050919050565b600060208201905081810360008301526139b2816132df565b9050919050565b600060208201905081810360008301526139d281613345565b9050919050565b600060208201905081810360008301526139f2816133ab565b9050919050565b60006020820190508181036000830152613a12816133eb565b9050919050565b60006020820190508181036000830152613a328161342b565b9050919050565b60006020820190508181036000830152613a5281613491565b9050919050565b60006020820190508181036000830152613a72816134f7565b9050919050565b60006020820190508181036000830152613a9281613537565b9050919050565b60006020820190508181036000830152613ab28161359d565b9050919050565b60006020820190508181036000830152613ad281613603565b9050919050565b60006020820190508181036000830152613af281613669565b9050919050565b60006020820190508181036000830152613b12816136cf565b9050919050565b60006020820190508181036000830152613b3281613735565b9050919050565b60006020820190508181036000830152613b5281613775565b9050919050565b60006020820190508181036000830152613b72816137db565b9050919050565b6000602082019050613b8e600083018461382a565b92915050565b6000602082019050613ba96000830184613839565b92915050565b6000604051905081810181811067ffffffffffffffff82111715613bd657613bd5613ed0565b5b8060405250919050565b600067ffffffffffffffff821115613bfb57613bfa613ed0565b5b602082029050602081019050919050565b6000819050602082019050919050565b600081519050919050565b600081519050919050565b6000602082019050919050565b600082825260208201905092915050565b600082825260208201905092915050565b6000613c6c82613d83565b9150613c7783613d83565b9250827fffffffffffffffffffffffffffffffffffffffffffffffffffffffffffffffff03821115613cac57613cab613e72565b5b828201905092915050565b6000613cc282613d83565b9150613ccd83613d83565b9250817fffffffffffffffffffffffffffffffffffffffffffffffffffffffffffffffff0483118215151615613d0657613d05613e72565b5b828202905092915050565b6000613d1c82613d83565b9150613d2783613d83565b925082821015613d3a57613d39613e72565b5b828203905092915050565b6000613d5082613d63565b9050919050565b60008115159050919050565b600073ffffffffffffffffffffffffffffffffffffffff82169050919050565b6000819050919050565b600060ff82169050919050565b60005b83811015613db8578082015181840152602081019050613d9d565b83811115613dc7576000848401525b50505050565b6000613dd882613d83565b91506000821415613dec57613deb613e72565b5b600182039050919050565b60006002820490506001821680613e0f57607f821691505b60208210811415613e2357613e22613ea1565b5b50919050565b6000613e3482613d83565b91507fffffffffffffffffffffffffffffffffffffffffffffffffffffffffffffffff821415613e6757613e66613e72565b5b600182019050919050565b7f4e487b7100000000000000000000000000000000000000000000000000000000600052601160045260246000fd5b7f4e487b7100000000000000000000000000000000000000000000000000000000600052602260045260246000fd5b7f4e487b7100000000000000000000000000000000000000000000000000000000600052604160045260246000fd5b6000601f19601f8301169050919050565b613f1981613d45565b8114613f2457600080fd5b50565b613f3081613d83565b8114613f3b57600080fd5b5056fea26469706673582212200187427afbb6829fb3679be24491bf8b3d1b5abf017e5f35ecba4571ce5d598164736f6c63430008000033",
  "linkReferences": {},
  "deployedLinkReferences": {}
}